:100000000C9468000C9490000C9490000C94900058
:100010000C9490000C9490000C9490000C94900020
:100020000C9490000C9490000C9490000C94900010
:100030000C9490000C9490000C9490000C94900000
:100040000C94BC040C9490000C942C050C940605A4
:100050000C9490000C9490000C9490000C949000E0
:100060000C940A080C9490001F1C1F1E1F1E1F1FBB
:100070001E1F1E1F00000000230026002900000094
:100080000000240027002A000000000025002800AE
:100090002B00040404040404040402020202020209
:1000A000030303030303010204081020408001023C
:1000B00004081020010204081020000000080002BB
:1000C00001000003040700000000000000007D0C98
:1000D00011241FBECFEFD8E0DEBFCDBF12E0A0E0FD
:1000E000B1E0EAE0FFE102C005900D92A830B1074F
:1000F000D9F723E0A8E0B2E001C01D92A038B20712
:10010000E1F710E0C8E6D0E004C02197FE010E94AC
:10011000780FC736D107C9F70E94620A0C94830F83
:100120000C940000CF92DF92EF92FF920F931F93F7
:10013000CF93DF936C017A018B01C0E0D0E0CE1544
:10014000DF0581F0D8016D918D01D601ED91FC9113
:100150000190F081E02DC6010995892B11F02196BF
:10016000EECF7E01C701DF91CF911F910F91FF90DC
:10017000EF90DF90CF900895089580E090E008958B
:10018000FC01538D448D252F30E0842F90E0821B9D
:10019000930B541710F0CF96089501970895FC0122
:1001A000918D828D981761F0828DDF01A80FB11DAE
:1001B0005D968C91928D9F5F9F73928F90E00895D2
:1001C0008FEF9FEF0895FC01918D828D981731F08C
:1001D000828DE80FF11D858D90E008958FEF9FEFE0
:1001E0000895FC01918D228D892F90E0805C9F4FB6
:1001F000821B91098F73992708958BE392E00E94E7
:10020000F10021E0892B09F420E0822F0895FC0100
:10021000848DDF01A80FB11DA35ABF4F2C91848D8F
:1002200090E001968F739927848FA689B7892C93C4
:10023000A089B1898C91837080648C93938D848D17
:10024000981306C00288F389E02D80818F7D80831A
:100250000895EF92FF920F931F93CF93DF93EC01DA
:1002600081E0888F9B8D8C8D981305C0E889F98972
:10027000808185FD26C0F62E0B8D10E00F5F1F4F8D
:100280000F731127E02E8C8DE8120CC00FB607FCFF
:10029000FACFE889F989808185FFF5CFCE010E94E8
:1002A0000701F1CF8B8DFE01E80FF11DE35AFF4FDF
:1002B000F0829FB7F8940B8FEA89FB898081806276
:1002C0000AC09FB7F894EE89FF896083E889F989AD
:1002D00080818370806480839FBF81E090E0DF91A4
:1002E000CF911F910F91FF90EF900895CF93DF93DF
:1002F000EC01888D8823C9F0EA89FB89808185FD1E
:1003000005C0A889B9898C9186FD0FC00FB607FC7E
:10031000F5CF808185FFF2CFA889B9898C9185FFBF
:10032000EDCFCE010E940701E7CFDF91CF91089575
:1003300080E090E0892B29F00E94FD0081110C944F
:1003400000000895EF92FF920F931F93CF93DF93D6
:10035000EC0169813881432F50E08A8190E0E8E622
:10036000F0E021E0261730F47491870F911D2F5F84
:100370003196F8CF633018F0337009F401966DE6CA
:1003800071E0469F9001479F300D569F300D11241C
:10039000215031094D5F5F4F5695479556954795CA
:1003A000240F351F280F391FA8E1B0E00E944A0F23
:1003B0002B817B018C01E20EF11C011D111DA80196
:1003C0009701ACE3B0E00E94590F2C817B018C01B6
:1003D000E20EF11C011D111DA80197010E94590F89
:1003E0002D81DC01CB01820F911DA11DB11DBC012E
:1003F000CD0160587C4B8249974CDF91CF911F9182
:100400000F91FF90EF9008958F929F92AF92BF92BD
:10041000CF92DF92EF92FF92CF93DF93EC016A01CC
:100420007B0180E8C81A83E4D80A8DE6E80A88E3ED
:10043000F80A8CE3882E912CA12CB12CC701B601AF
:10044000A50194010E94280F6D83CA01B901A5017D
:1004500094010E94280F6C83C701B60120E13EE0A1
:1004600040E050E00E94280FCA01B90128E130E0C5
:1004700040E050E00E94280F6B83C701B60120E8DE
:1004800031E541E050E00E94280F18824881542F46
:10049000537081E009F080E090E0BC0163597E4F29
:1004A0002617370738F0281B390B2D5631404F5F80
:1004B0004883ECCF81E089838981E82FF0E0E95916
:1004C000FF4FE491511103C0823009F4EF5FF0E077
:1004D0002E173F0720F02E1B3F0B8F5FECCF2F5FB7
:1004E0002A83DF91CF91FF90EF90DF90CF90BF9064
:1004F000AF909F908F9008951F93CF93DF93EC015F
:10050000142F888191E090931A028093190210921F
:1005100018021092170289819A81DC01ED91FC91F9
:100520000190F081E02D099589819A81DC01ED919E
:10053000FC910190F081E02D612F099589819A81CC
:10054000DF91CF911F910C943809EF92FF920F9396
:100550001F93CF93DF93EC01E42E052FF22E132F80
:10056000888191E090931A028093190210921802E8
:100570001092170289819A8124E0629FB0011124B0
:100580006A5F7F4FDC01ED91FC910190F081E02DDD
:1005900009956E2D702F89819A810E94A906602F7E
:1005A00070E089819A810E94A9066F2D712F89813F
:1005B0009A810E94A906612F70E089819A810E9428
:1005C000A90689819A81DF91CF911F910F91FF90A8
:1005D000EF900C943809CF92DF92EF92FF921F9325
:1005E000CF93DF93EC01CB01BA0126E636E646E66F
:1005F0005FE30E949B0E9B01AC0160E27CEB8EEB03
:1006000095E40E94510D20E030E040E85FE30E9455
:10061000E40C20E030E040E05FE30E94E50C0E9443
:10062000F20D6B017C01888191E090931A02809316
:100630001902109218021092170289819A81DC0126
:10064000ED91FC910190F081E02D60E009958981A8
:100650009A810E94380961E088810E949207109275
:1006600016028093150289819A81DC01ED91FC913B
:100670000284F385E02D0995182F482F4F764061AD
:1006800060E0CE010E947C02C701B6010E94C30D4A
:10069000462F6EEFCE010E947C02412F60E0CE011A
:1006A0000E947C0265E070E080E090E00E94280AF1
:1006B000412F406A60E0CE01DF91CF911F91FF9002
:1006C000EF90DF90CF900C947C02CF93DF93EC01FE
:1006D00089819A810E94CF0940E860E0CE010E94A2
:1006E0007C026AE070E080E090E00E94280A40E02E
:1006F00050E06AE774E4CE01DF91CF910C94EB02F5
:10070000CF92DF92EF92FF920F931F93CF93DF93DD
:10071000EC0181E080931A0288E68093190210921E
:1007200018021092170260E088ED92E00E942906FC
:1007300088ED92E00E94380967E088E60E949207FF
:10074000109216028093150288ED92E00E94E00557
:100750008F77982F92959F701AEF082F919F000D19
:10076000112488ED92E00E94E0059C01332794E07B
:10077000359527959A95E1F7F82E129FF00C1124E4
:1007800088ED92E00E94E0059C01332744E0359516
:1007900027954A95E1F7E82E129FE00C112488ED89
:1007A00092E00E94E00588ED92E00E94E0059C0145
:1007B000332754E0359527955A95E1F7D82E129FA7
:1007C000D00C112488ED92E00E94E0059C013327B3
:1007D00064E0359527956A95E1F7C82E129FC00C05
:1007E000112488ED92E00E94E0059C01332774E01B
:1007F000359527957A95E1F7129F800D112488830E
:10080000C982DA82EB82FC820D83CE01DF91CF9127
:100810001F910F91FF90EF90DF90CF9008950F936D
:100820001F93CF938C0181E080931A0288E6809316
:100830001902109218021092170260E088ED92E0FF
:100840000E942906F8012581CAE0822F6C2F0E94A0
:10085000080F682F660F860F880F682F620F88EDCC
:1008600092E00E942906F8012481822F6C2F0E94B9
:10087000080F682F660F860F880F682F620F88EDAC
:1008800092E00E942906F8012381822F6C2F0E949A
:10089000080F682F660F860F880F682F620F88ED8C
:1008A00092E00E94290660E088ED92E00E9429060D
:1008B000F8012281822F6C2F0E94080F682F660F8B
:1008C000860F880F682F620F88ED92E00E9429063C
:1008D000F8012181822F6C2F0E94080F682F660F6C
:1008E000860F880F682F620F88ED92E00E9429061C
:1008F000F8012081822F6C2F0E94080F682F660F4D
:10090000860F880F682F620F88ED92E00E942906FB
:1009100088ED92E00E9438098FE00E94AF09682FAD
:100920006F778FE0CF911F910F910C9494093FB78F
:10093000F8948091110290911202A0911302B0914B
:10094000140226B5A89B05C02F3F19F00196A11DE2
:10095000B11D3FBFBA2FA92F982F8827820F911D55
:10096000A11DB11DBC01CD0142E0660F771F881F9C
:10097000991F4A95D1F708951F920F920FB60F92C3
:1009800011242F933F938F939F93AF93BF938091A5
:100990000D0290910E02A0910F02B09110023091C1
:1009A0000C0223E0230F2D3720F40196A11DB11D69
:1009B00005C026E8230F0296A11DB11D20930C024D
:1009C00080930D0290930E02A0930F02B093100239
:1009D0008091110290911202A0911302B091140221
:1009E0000196A11DB11D8093110290931202A09354
:1009F0001302B0931402BF91AF919F918F913F91D9
:100A00002F910F900FBE0F901F9018951F920F926D
:100A10000FB60F9211242F933F934F935F936F93D1
:100A20007F938F939F93AF93BF93EF93FF938BE34A
:100A300092E00E940701FF91EF91BF91AF919F91CA
:100A40008F917F916F915F914F913F912F910F9077
:100A50000FBE0F901F9018951F920F920FB60F9216
:100A600011242F938F939F93EF93FF93E0914B0269
:100A7000F0914C028081E0915102F091520282FD8E
:100A800012C09081809154028F5F8F732091550224
:100A9000821751F0E0915402F0E0E55CFD4F958F34
:100AA0008093540201C08081FF91EF919F918F91BB
:100AB0002F910F900FBE0F901F901895CF92DF923D
:100AC000EF92FF920F931F93CF93C62F2EE0249F98
:100AD0006001259FD00C1124E12CF12C8C01000F1A
:100AE000111F800F911F8C010A511D4FF701EC0D52
:100AF000FD1DE050FF4F80819181892B29F420E07A
:100B000030E040E050E104C020E030E140E050E05F
:100B10006C2FC8010E94A50282E0E80EF11CCF5F95
:100B20008EE0E816F10411F7CF911F910F91FF901D
:100B3000EF90DF90CF90089585ED8093BC00809179
:100B4000BC0084FDFCCF10927903089540912E03E0
:100B5000262F30E0240F311D21323105DCF42091A5
:100B600079032430C9F4FC0180E090E0861758F442
:100B700030912E032191DC01A45FBC4FA30FB11D66
:100B80002C930196F3CF80912E03680F60932E0370
:100B900080E0089581E0089582E008950895089521
:100BA0000895E091160280911502E81730F4F0E004
:100BB000E55EFD4F808190E008958FEF9FEF0895EF
:100BC0009091160280911502981750F4E92FF0E0E9
:100BD000E55EFD4F208130E09F5F9093160202C0DA
:100BE0002FEF3FEFC90108958091150290E0209109
:100BF0001602821B91090895CF92DF92EF92FF9225
:100C00000F931F93CF93DF937C01CB018A01209137
:100C10001A02222389F0EB016B01C40ED51ECC15FC
:100C2000DD0569F06991D701ED91FC910190F081AA
:100C3000E02DC7010995F3CF642F0E94A605C801D6
:100C4000DF91CF911F910F91FF90EF90DF90CF90A8
:100C50000895CF93DF931F92CDB7DEB769832091BC
:100C60001A022223D1F020911702203240F021E015
:100C700030E0FC013383228380E090E015C0809156
:100C80001802E82FF0E0E451FD4F998190838F5FC7
:100C9000809318028093170205C061E0CE0101968F
:100CA0000E94A60581E090E00F90DF91CF9108951A
:100CB000833081F028F4813099F08230A1F00895DA
:100CC0008730A9F08830B9F08430D1F48091800069
:100CD0008F7D03C0809180008F778093800008957E
:100CE00084B58F7702C084B58F7D84BD08958091CF
:100CF000B0008F7703C08091B0008F7D8093B000EB
:100D00000895CF93DF93282F30E0F901E654FF4F89
:100D10008491F901EA55FF4FD491F901EE56FF4F46
:100D2000C491CC2389F081110E945806EC2FF0E089
:100D3000EE0FFF1FE857FF4FA591B4918FB7F894BE
:100D4000EC91ED2BEC938FBFDF91CF9108950E9432
:100D50007E0FDC01ED91FC910190F081E02D099472
:100D6000009769F0FC0101900020E9F73197AF018D
:100D7000481B590BBC018BE392E00C94920080E07D
:100D800090E008958F929F92AF92BF920F931F931E
:100D9000CF93DF93CDB7DEB7A1970FB6F894DEBF40
:100DA0000FBECDBF19A2423008F44AE08E010F5D9C
:100DB0001F4F842E912CA12CB12CA50194010E94CF
:100DC000280FE62FB901CA0101501109EA3014F4C5
:100DD000E05D01C0E95CD801EC93232B242B252B8B
:100DE00061F7C8010E94B006A1960FB6F894DEBF65
:100DF0000FBECDBFDF91CF911F910F91BF90AF90EC
:100E00009F908F900895682F70E080E090E04AE016
:100E10000C94C206682F8BE392E00C942901CF93C7
:100E2000DF93EC018C8190E02B8130E06AE070E090
:100E30000E94140FFC0170937F0360937E038091E6
:100E4000E4029091E502892B59F02D3031051CF018
:100E50002C50310905C02115310511F42CE030E08A
:100E6000C9016AE070E00E94140F90937D038093A3
:100E70007C0370937B0360937A03AF0168E070E0BA
:100E800081E090E00E945E0540917E0350917F03D7
:100E900060E070E081E090E00E945E0540917C039C
:100EA00050917D0368E070E080E090E00E945E0574
:100EB00040917A0350917B0360E070E080E090E025
:100EC0000E945E05688170E06053784F072E000C29
:100ED000880B990B4AE00E94C2068FE20E940A0723
:100EE00089810E9403078FE20E940A078A810E947B
:100EF000030783E092E00E94B0068B810E94030703
:100F00008AE30E940A078C810E9403078AE30E94F9
:100F10000A078D810E94030785E092E0DF91CF915F
:100F20000C94B006909179039111FCCF91E09093CD
:100F30007903909378032FEF209377031092760331
:100F4000260F209375039093740390917403880F78
:100F5000892B8093740380917303813061F4109224
:100F60007303809174038093BB008091BC0083FD68
:100F7000F8CF85EC01C085EE8093BC0080917903A9
:100F80008130E1F380917603861710F46091760347
:100F9000A3E5B3E0EBE1F2E080E0861721F09D915C
:100FA00091938F5FFACF0895CF93DF9390E0FC0188
:100FB000EA55FF4F2491FC01EE56FF4F84918823A0
:100FC000C1F090E0880F991FFC01E258FF4FC591D6
:100FD000D491FC01E857FF4FA591B4919FB7F894C5
:100FE0008881322F309583238883EC91E22BEC9318
:100FF0009FBFDF91CF910895CF93DF930E94B006FA
:10100000EC0185E092E00E94B0068C0F9D1FDF91FD
:10101000CF9108951F920F920FB60F9211242F9324
:101020003F934F935F936F937F938F939F93AF9370
:10103000BF93EF93FF938091B900887F803609F4C6
:101040009CC068F5883209F45BC090F4803109F4E3
:1010500054C038F4882309F4F6C0883009F44DC030
:10106000F6C0883109F44CC0803209F45DC0EFC08D
:10107000803409F468C048F4803309F455C08833DB
:1010800009F0E5C080937703D8C0803509F44FC0DC
:10109000883509F45DC0883409F0D9C0D6C08839D4
:1010A00009F4C7C0A8F4883709F467C038F4883653
:1010B00009F463C0803709F460C0C9C0883809F4F6
:1010C000B8C0803909F45FC0803809F0C0C05BC087
:1010D000803B09F486C038F4803A09F466C0883A47
:1010E00009F47FC0B4C0803C09F4A7C0883C09F46F
:1010F000A4C0883B09F48AC0AAC08091740310C0C0
:101100009091760380917503981770F5E0917603BE
:1011100081E08E0F80937603F0E0ED5AFC4F8081E2
:101120008093BB0085EC86C0809377038EC0E091EE
:10113000760381E08E0F809376038091BB00F0E010
:10114000ED5AFC4F808390917603809175036EC0B9
:10115000E091760381E08E0F809376038091BB004F
:10116000F0E0ED5AFC4F80838091780381116DC0CF
:1011700081E08093730384EA61C083E08093790304
:1011800010925203CFCF80915203803208F051C0A9
:10119000E091520381E08E0F809352038091BB0057
:1011A000F0E0EE5CFC4F8083BDCF85EC8093BC000B
:1011B0001092790380915203803230F4E09152030F
:1011C000F0E0EE5CFC4F10826091520370E0E09121
:1011D0003003F091310382E393E0099510925203BA
:1011E00036C084E08093790310922F0310922E036F
:1011F000E0912C03F0912D03099580912E0381112C
:1012000005C081E080932E0310920C03E0912F0320
:1012100081E08E0F80932F03F0E0E45FFC4F80812C
:101220008093BB0090912F0380912E03981708F4B0
:1012300079CF85E88093BC000AC085EC8093BC0020
:101240001092790304C0109277030E949C05FF91CD
:10125000EF91BF91AF919F918F917F916F915F912E
:101260004F913F912F910F900FBE0F901F901895A7
:1012700030911702313208F04BC08091790381110F
:10128000FCCF9091190222E02093790321E0209372
:1012900078032FEF20937703109276033093750332
:1012A000ECEEF2E0A3E5B3E020E0321721F041914B
:1012B0004D932F5FFACF1092740320917403990F0E
:1012C000922B9093740390917303913061F4109278
:1012D0007303909174039093BB009091BC0093FDB5
:1012E000F8CF95EC01C095EE9093BC0090917903F6
:1012F0009230E1F3909177039F3F79F080917703EB
:10130000803241F080917703803331F084E005C072
:1013100081E003C082E001C083E0109218021092C5
:10132000170210921A020895CF93C62F91E090935E
:101330001A0298E69093190210921802109217025E
:10134000682F88ED92E00E9429066C2F88ED92E0CC
:101350000E94290688ED92E0CF910C94380991E023
:1013600090931A0298E69093190210921802109224
:101370001702682F88ED92E00E94290688ED92E01E
:101380000E94380961E088E60E94920710921602D6
:101390008093150288ED92E00E94E0050895109276
:1013A0001602109215021092180210921702109253
:1013B000790381E0809378031092730382E10E94A5
:1013C000810683E10E948106E9EBF0E080818E7F57
:1013D000808380818D7F808388E48093B80085E45A
:1013E0008093BC008EEC95E090932D0380932C03AA
:1013F0008FEC95E090933103809330030895CF9361
:10140000DF93282F30E0F901E654FF4F8491F90172
:10141000EA55FF4FD491F901EE56FF4FC491CC230A
:1014200091F081110E945806EC2FF0E0EE0FFF1FA3
:10143000EC58FF4FA591B491EC91ED2381E090E041
:1014400021F480E002C080E090E0DF91CF91089528
:101450008F929F92AF92BF92CF92DF92EF92FF92C4
:101460006B017C010E9497044B015C01C114D10403
:10147000E104F104F1F00E949704DC01CB0188192A
:101480009909AA09BB09883E9340A105B10570F3EB
:1014900021E0C21AD108E108F10888EE880E83E045
:1014A000981EA11CB11CC114D104E104F10419F768
:1014B000DDCFFF90EF90DF90CF90BF90AF909F90E7
:1014C0008F900895CF93DF93CDB7DEB72C970FB6EB
:1014D000F894DEBF0FBECDBF789484B5826084BD22
:1014E00084B5816084BD85B5826085BD85B5816028
:1014F00085BD80916E00816080936E0010928100A6
:101500008091810082608093810080918100816060
:101510008093810080918000816080938000809121
:10152000B10084608093B1008091B00081608093AD
:10153000B00080917A00846080937A0080917A0074
:10154000826080937A0080917A00816080937A0033
:1015500080917A00806880937A001092C1008AE0BE
:101560000E94D40789E00E94D40788E00E94D40733
:101570008BE00E94D407E0914B02F0914C0282E094
:101580008083E0914702F09148021082E091490285
:10159000F0914A028FEC808310925302E0914F0247
:1015A000F091500286E08083E0914D02F0914E026E
:1015B000808180618083E0914D02F0914E028081B4
:1015C00088608083E0914D02F0914E0280818068B6
:1015D0008083E0914D02F0914E0280818F7D808367
:1015E00086EE92E00E94650340E050E068EC74E40F
:1015F00086EE92E00E94EB0289EE92E00E94650383
:1016000040E050E068EC74E489EE92E00E94EB0266
:1016100088ED92E00E94CF098EE00E94AF09682F0A
:10162000637E8EE00E9494098FE00E94AF0990E0F3
:10163000880F892F881F990B892B59F0198281E017
:101640008A838B831C821D821E82CE0101960E949A
:101650000F04CE0107960E9480038F8189838885BD
:101660008A8389858B838A858C838B858D838C8502
:101670008E83CE0101960E940F0701E010E020E06A
:1016800030E140E050E067E089EE92E00E94A50280
:1016900020E030E140E050E06FE089EE92E00E940F
:1016A000A50220E030E140E050E067E086EE92E005
:1016B0000E94A50220E030E140E050E06FE086EEBD
:1016C00092E00E94A502CE0107960E9480038091BD
:1016D0000A0290910B020097E9F482EB91E00E94DC
:1016E000FC078BE00E94FF09892B09F0A7C061E08D
:1016F0008091E4029091E502892B09F060E0862F49
:1017000090E09093E5028093E40280E091E00E94F3
:10171000D60C94C08130910509F03FC020E030E044
:1017200040E050E167E086EE92E00E94A50220E0F2
:1017300030E040E050E16FE086EE92E00E94A502CA
:1017400088EB91E00E94FC0789E00E94FF09892B49
:1017500079F483EC91E00E94FC07CE0107960E9489
:10176000A201AB01BC01405F514F6F4F7F4F55C08D
:101770008AE00E94FF09892B09F060C08DEC91E09E
:101780000E94FC07CE0107960E94A201AB01BC019A
:1017900040515E406109710940C0029709F04EC096
:1017A00020E030E040E050E167E089EE92E00E9406
:1017B000A50220E030E040E050E16FE089EE92E0E9
:1017C0000E94A50288ED91E00E94FC0789E00E943A
:1017D000FF09892B79F485EE91E00E94FC07CE0188
:1017E00007960E94A201AB01BC01445C5F4F6F4FA2
:1017F0007F4F13C08AE00E94FF09892BF9F481EF23
:1018000091E00E94FC07CE0107960E94A201AB0165
:10181000BC014C53510961097109CE0101960E9426
:101820000402CE0101960E940F0486E0FE0131966B
:10183000DE01179601900D928A95E1F788E00E94EB
:10184000FF09892BE9F58091080290910902892B03
:10185000D9F580910A0290910B02019690930B02A8
:1018600080930A021093090200930802039724F060
:1018700010920B0210920A028EEF91E00E94B006C5
:10188000C0900A02D0900B020D2C000CEE08FF084D
:10189000F7FE0CC08DE20E940A0766277727CB016E
:1018A0006C197D098E099F094AE003C04AE0C7010F
:1018B000B6010E94C20685E092E00E94B00604C014
:1018C00010920902109208028F81898388858A8389
:1018D00089858B838A858C838B858D838C858E838C
:1018E000CE0101960E940F0764EF71E080E090E066
:1018F0000E94280A0E949801C2CEA8EDB2E0139679
:101900001C921E92129748EE53E060E070E014962D
:101910004D935D936D937C93179780E991E01196B9
:101920009C938E93EBE3F2E01382128244835583FF
:101930006683778382EA91E09183808385EC90E0EF
:101940009587848784EC90E09787868780EC90E089
:10195000918B808B81EC90E0938B828B82EC90E07A
:10196000958B848B86EC90E0978B868B118E128EF4
:10197000138E148EE6EEF2E080E48083B283A183BE
:1019800081E48383B583A48380E091E00E94CE0C40
:1019900090E09093E5028093E4020895F999FECFD8
:1019A00092BD81BDF89A992780B50895262FF9999F
:1019B000FECF1FBA92BD81BD20BD0FB6F894FA9A32
:1019C000F99A0FBE019608955058BB27AA270E9486
:1019D000FC0C0C94490E0E943B0E38F00E94420E03
:1019E00020F039F49F3F19F426F40C94380E0EF4CD
:1019F000E095E7FB0C94090EE92F0E945A0E58F36C
:101A0000BA17620773078407950720F079F4A6F5E3
:101A10000C94940E0EF4E0950B2EBA2FA02D0B0112
:101A2000B90190010C01CA01A0011124FF27591B23
:101A300099F0593F50F4503E68F11A16F040A22F29
:101A4000232F342F4427585FF3CF4695379527959A
:101A5000A795F0405395C9F77EF41F16BA0B620B99
:101A6000730B840BBAF09150A1F0FF0FBB1F661FE0
:101A7000771F881FC2F70EC0BA0F621F731F841F23
:101A800048F4879577956795B795F7959E3F08F049
:101A9000B0CF9395880F08F09927EE0F979587950B
:101AA00008950E94650D0C94490E0E94420E58F054
:101AB0000E943B0E40F029F45F3F29F00C94090E80
:101AC00051110C94950E0C94380E0E945A0E68F326
:101AD0009923B1F3552391F3951B550BBB27AA27E7
:101AE00062177307840738F09F5F5F4F220F331F21
:101AF000441FAA1FA9F335D00E2E3AF0E0E832D0E9
:101B000091505040E695001CCAF72BD0FE2F29D0EB
:101B1000660F771F881FBB1F261737074807AB07BD
:101B2000B0E809F0BB0B802DBF01FF2793585F4F32
:101B30003AF09E3F510578F00C94090E0C94950EE6
:101B40005F3FE4F3983ED4F3869577956795B79514
:101B5000F7959F5FC9F7880F911D9695879597F91F
:101B60000895E1E0660F771F881FBB1F6217730798
:101B70008407BA0720F0621B730B840BBA0BEE1FAD
:101B800088F7E09508950E94620E88F09F5798F0BC
:101B9000B92F9927B751B0F0E1F0660F771F881F72
:101BA000991F1AF0BA95C9F714C0B13091F00E948C
:101BB000940EB1E008950C94940E672F782F882727
:101BC000B85F39F0B93FCCF3869577956795B395B3
:101BD000D9F73EF490958095709561957F4F8F4F22
:101BE0009F4F08950E947C0E90F09F3748F491110A
:101BF00016F00C94950E60E070E080E89FEB08957D
:101C000026F41B16611D711D811D0C940F0E0C9482
:101C10002A0E97F99F6780E870E060E008958823B6
:101C200071F4772321F09850872B762F07C0662315
:101C300011F499270DC09051862B70E060E02AF0D6
:101C40009A95660F771F881FDAF7880F9695879504
:101C500097F908959F3F31F0915020F4879577953B
:101C60006795B795880F911D9695879597F9089573
:101C70009FEF80EC089500240A94161617061806A4
:101C80000906089500240A94121613061406050680
:101C90000895092E0394000C11F4882352F0BB0F11
:101CA00040F4BF2B11F460FF04C06F5F7F4F8F4F74
:101CB0009F4F089557FD9058440F551F59F05F3FAF
:101CC00071F04795880F97FB991F61F09F3F79F05E
:101CD00087950895121613061406551FF2CF4695E0
:101CE000F1DF08C0161617061806991FF1CF869562
:101CF00071056105089408950E94620EA0F0BEE788
:101D0000B91788F4BB279F3860F41616B11D672FEA
:101D1000782F8827985FF7CF869577956795B11DBF
:101D200093959639C8F30895E894BB2766277727DB
:101D3000CB0197F908950E94AE0E0C94490E0E94B3
:101D40003B0E38F00E94420E20F0952311F00C94C7
:101D5000090E0C94380E11240C94950E0E945A0E04
:101D600070F3959FC1F3950F50E0551F629FF001EE
:101D7000729FBB27F00DB11D639FAA27F00DB11D07
:101D8000AA1F649F6627B00DA11D661F829F222790
:101D9000B00DA11D621F739FB00DA11D621F839F17
:101DA000A00D611D221F749F3327A00D611D231FED
:101DB000849F600D211D822F762F6A2F11249F573B
:101DC00050409AF0F1F088234AF0EE0FFF1FBB1F3E
:101DD000661F771F881F91505040A9F79E3F5105FD
:101DE00080F00C94090E0C94950E5F3FE4F3983E3E
:101DF000D4F3869577956795B795F795E7959F5FA7
:101E0000C1F7FE2B880F911D9695879597F9089538
:101E1000991B79E004C0991F961708F0961B881F3C
:101E20007A95C9F78095089597FB072E16F40094CC
:101E300007D077FD09D00E94640F07FC05D03EF45F
:101E4000909581959F4F0895709561957F4F089566
:101E5000A1E21A2EAA1BBB1BFD010DC0AA1FBB1FAE
:101E6000EE1FFF1FA217B307E407F50720F0A21B20
:101E7000B30BE40BF50B661F771F881F991F1A948D
:101E800069F760957095809590959B01AC01BD01B7
:101E9000CF010895A29FB001B39FC001A39F700D11
:101EA000811D1124911DB29F700D811D1124911D62
:101EB00008950E944A0FA59F900DB49F900DA49F76
:101EC000800D911D11240895AA1BBB1B51E107C071
:101ED000AA1FBB1FA617B70710F0A61BB70B881FBA
:101EE000991F5A95A9F780959095BC01CD01089549
:101EF000EE0FFF1F0590F491E02D099481E090E032
:0A1F0000F8940C94830FF894FFCFBF
:101F0A000010001000100010001000100000000067
:101F1A000010001000000000000000000010001077
:101F2A000000001000100000001000100010001047
:101F3A000010000000000010000000100010000057
:101F4A000000001000100010000000100010000037
:101F5A000010001000100000001000100010001007
:101F6A000010001000100010000000000000000027
:101F7A0000100010001000100010001000100010D7
:101F8A0000100010001000000010001000000000F7
:101F9A002906FC05BD00D005F405E005D1050000C1
:101FAA00000029019200C0007601F100CF00E30091
:101FBA000001436C6F636B00486F7572206368653C
:101FCA00636B00486F757220706C757300486F758B
:101FDA0072206D696E7573004D696E757465206344
:101FEA006865636B004D696E75746520706C7573F6
:101FFA00004D696E757465206D696E7573004D6F5D
:08200A0064653A20000D0A0094
:00000001FF
