:100000000C94E8000C9410010C9410010C94100155
:100010000C9410010C9410010C9410010C9410011C
:100020000C9410010C9410010C94DF0B0C94510CE7
:100030000C9410010C9410010C9410010C941001FC
:100040000C9410010C9410010C9410010C941001EC
:100050000C9410010C9410010C9410010C94950B4D
:100060000C9410010C9410010C9410010C941001CC
:100070000C9410010C9410010C9410010C941001BC
:100080000C9410010C9410010C9410010C941001AC
:100090000C9425080C9410010C9410010C94100180
:1000A0000C9410010C9410010C94100124062706E6
:1000B00016061A0620064806480648062B062F068E
:1000C000330639063D06480643061F1C1F1E1F1E29
:1000D0001F1F1E1F1E1F00000000230026002900F6
:1000E0002C002F0000000000240027002A002D0013
:1000F000300000000000250028002B002E003100F9
:1001000004040404040304050202020204030202BC
:10011000020206060606060604040202020404049D
:1001200008020110408040102040804080080204F6
:10013000018040201002011080102040402000006B
:10014000000200090F0000030401000C0000000081
:1001500000000000000000000000000000080B008C
:10016000020202010009040000010202000005244D
:1001700000100105240101010424020605240600E3
:10018000010705810310004009040100020A000074
:10019000000705020240000007058302400000043A
:1001A00003090412010002EF0201404123418000D3
:1001B000010102030141726475696E6F204C4C436A
:1001C0000041726475696E6F2059756E0000D5101C
:1001D00011241FBECFEFDAE0DEBFCDBF11E0A0E0FB
:1001E000B1E0EAE9F7E202C005900D92A83FB1073D
:1001F000D9F723E0A8EFB1E001C01D92A933B207FF
:10020000E1F710E0C8EED0E004C02197FE010E94A3
:100210009213C73ED107C9F70E948F0E0C94CB13DF
:100220000C940000CF93DF931F92CDB7DEB76983A4
:10023000DC01ED91FC910280F381E02D41E050E082
:10024000BE016F5F7F4F09950F90DF91CF910895A9
:1002500083E08093E9008091F200882319F08AE31B
:100260008093E8000895FC018485958597FD0BC077
:100270009FB7F89482E08093E9008091F2009FBFDD
:1002800090E0019608959FB7F89482E08093E9008A
:100290008091F2009FBF90E00895089580E090E083
:1002A0000895EF92FF920F931F93CF93DF93EC018A
:1002B00069813881432F50E08A8190E0EAECF0E0D8
:1002C00021E0261730F47491870F911D2F5F31962E
:1002D000F8CF633018F0337009F401966DE671E0E1
:1002E000469F9001479F300D569F300D112421509D
:1002F00031094D5F5F4F5695479556954795240FA9
:10030000351F280F391FA8E1B0E00E9498132B81F8
:100310007B018C01E20EF11C011D111DA80197014A
:10032000ACE3B0E00E94A7132C817B018C01E20EAC
:10033000F11C011D111DA80197010E94A7132D8119
:10034000DC01CB01820F911DA11DB11DBC01CD01AE
:1003500060587C4B8249974CDF91CF911F910F9150
:10036000FF90EF9008958F929F92AF92BF92CF929D
:10037000DF92EF92FF92CF93DF93EC016A017B0152
:1003800080E8C81A83E4D80A8DE6E80A88E3F80A08
:100390008CE3882E912CA12CB12CC701B601A501AC
:1003A00094010E9470136D83CA01B901A5019401E3
:1003B0000E9470136C83C701B60120E13EE040E06B
:1003C00050E00E947013CA01B90128E130E040E01A
:1003D00050E00E9470136B83C701B60120E831E53D
:1003E00041E050E00E94701318824881542F5370EE
:1003F00081E009F080E090E0BC0163597E4F261750
:10040000370738F0281B390B2D5631404F5F488392
:10041000ECCF81E089838981E82FF0E0E753FF4F3B
:10042000E491511103C0823009F4EF5FF0E02E1720
:100430003F0720F02E1B3F0B8F5FECCF2F5F2A83EF
:10044000DF91CF91FF90EF90DF90CF90BF90AF9072
:100450009F908F9008958F929F92AF92BF92CF926C
:10046000DF92EF92FF920F931F93CF93DF936C0174
:100470007B018A0180910B01882309F45CC0809183
:10048000FD01882309F457C08091290380FF05C02E
:100490008091E00082608093E000E801B12C8AEF57
:1004A000A82E93E0892E2AE3922E209711F4BB20E8
:1004B000D9F10E94000881110AC0AA94AA20D9F19A
:1004C00061E070E080E090E00E94430AEECF282FC8
:1004D00030E0C217D3070CF48C2F9FB7F8948092AA
:1004E000E9002091E80025FF1DC0282F30E0C21B45
:1004F000D30BF701815020F041914093F100FACFE6
:10050000E20EF31EBB2019F09092E8000AC0809121
:10051000E80085FD07C09092E800BB24B3942097C3
:1005200009F0B12C9FBFC1CF5D9884E680932A0368
:100530001016110644F081E090E0F6019383828367
:1005400080E090E001C0C801DF91CF911F910F9131
:10055000FF90EF90DF90CF90BF90AF909F908F90E3
:1005600008950E94000890E008950F931F93CF9381
:10057000DF931F92CDB7DEB78C01FC018485958592
:1005800097FF0EC0CE0101960E94D207019719F481
:10059000898190E002C08FEF9FEFF80195878487F3
:1005A000F801848595850F90DF91CF911F910F9170
:1005B0000895CF93DF931F92CDB7DEB7FC018485FA
:1005C000958597FD05C02FEF3FEF358724870BC03A
:1005D000CE0101960E94D207019719F4898190E01B
:1005E00002C08FEF9FEF0F90DF91CF9108951F937F
:1005F000CF93DF93EC01142F888191E09093030255
:1006000080930202109201021092000289819A8165
:10061000DC01ED91FC910190F081E02D099589813B
:100620009A81DC01ED91FC910190F081E02D612F28
:10063000099589819A81DF91CF911F910C9453097B
:10064000EF92FF920F931F93CF93DF93EC01E42E71
:10065000052FF22E132F888191E09093030280934F
:100660000202109201021092000289819A8124E014
:10067000629FB00111246A5F7F4FDC01ED91FC9114
:100680000190F081E02D09956E2D702F89819A815E
:100690000E947106602F70E089819A810E94710624
:1006A0006F2D712F89819A810E947106612F70E0F0
:1006B00089819A810E94710689819A81DF91CF9107
:1006C0001F910F91FF90EF900C945309CF92DF92FE
:1006D000EF92FF921F93CF93DF93EC01CB01BA010E
:1006E00026E636E646E65FE30E94E3129B01AC0194
:1006F00060E27CEB8EEB95E40E94991120E030E003
:1007000040E85FE30E942C1120E030E040E05FE32E
:100710000E942D110E943A126B017C01888191E0A8
:100720009093030280930202109201021092000241
:1007300089819A81DC01ED91FC910190F081E02D9D
:1007400060E0099589819A810E94530961E088815E
:100750000E945A071092FF018093FE0189819A81BD
:10076000DC01ED91FC910284F385E02D0995182FB1
:10077000482F4F76406160E0CE010E94F702C7012A
:10078000B6010E940B12462F6EEFCE010E94F702B7
:10079000412F60E0CE010E94F70265E070E080E04A
:1007A00090E00E94430A412F406A60E0CE01DF9151
:1007B000CF911F91FF90EF90DF90CF900C94F702B4
:1007C000CF93DF93EC0189819A810E94EA0940E886
:1007D00060E0CE010E94F7026AE070E080E090E005
:1007E0000E94430A40E050E06AE774E4CE01DF91E2
:1007F000CF910C946603CF92DF92EF92FF920F930A
:100800001F93CF93DF93EC0181E08093030288E68E
:1008100080930202109201021092000260E084E7CD
:1008200092E00E94DD0584E792E00E94530967E0B0
:1008300088E60E945A071092FF018093FE0184E728
:1008400092E00E9494058F77982F92959F701AEFEF
:10085000082F919F000D112484E792E00E949405D7
:100860009C01332794E0359527959A95E1F7F82E6A
:10087000129FF00C112484E792E00E9494059C01E1
:10088000332744E0359527954A95E1F7E82E129FE6
:10089000E00C112484E792E00E94940584E792E042
:1008A0000E9494059C01332754E0359527955A956D
:1008B000E1F7D82E129FD00C112484E792E00E9419
:1008C00094059C01332764E0359527956A95E1F7F7
:1008D000C82E129FC00C112484E792E00E94940558
:1008E0009C01332774E0359527957A95E1F7129F9F
:1008F000800D11248883C982DA82EB82FC820D8309
:10090000CE01DF91CF911F910F91FF90EF90DF907B
:10091000CF9008950F931F93CF938C0181E0809324
:10092000030288E6809302021092010210920002F4
:1009300060E084E792E00E94DD05F8012581CAE0CD
:10094000822F6C2F0E945013682F660F860F880F1E
:10095000682F620F84E792E00E94DD05F801248190
:10096000822F6C2F0E945013682F660F860F880FFE
:10097000682F620F84E792E00E94DD05F801238171
:10098000822F6C2F0E945013682F660F860F880FDE
:10099000682F620F84E792E00E94DD0560E084E743
:1009A00092E00E94DD05F8012281822F6C2F0E94C7
:1009B0005013682F660F860F880F682F620F84E729
:1009C00092E00E94DD05F8012181822F6C2F0E94A8
:1009D0005013682F660F860F880F682F620F84E709
:1009E00092E00E94DD05F8012081822F6C2F0E9489
:1009F0005013682F660F860F880F682F620F84E7E9
:100A000092E00E94DD0584E792E00E9453098FE0A6
:100A10000E94CA09682F6F778FE0CF911F910F91C5
:100A20000C94AF09CF92DF92EF92FF920F931F9336
:100A3000CF93C62F2EE0249F6001259FD00C112458
:100A4000E12CF12C8C01000F111F800F911F8C01E4
:100A50000E571D4FF701EC0DFD1DE45FFE4F808129
:100A60009181892B29F420E030E040E050E104C07E
:100A700020E030E140E050E06C2FC8010E942003EC
:100A800082E0E80EF11CCF5F8EE0E816F10411F76A
:100A9000CF911F910F91FF90EF90DF90CF9008952D
:100AA00085ED8093BC008091BC0084FDFCCF10924A
:100AB000210308954091CA02262F30E0240F311DF2
:100AC00021323105DCF4209121032430C9F4FC01EA
:100AD00080E090E0861758F43091CA022191DC0141
:100AE000A855BD4FA30FB11D2C930196F3CF809154
:100AF000CA02680F6093CA0280E0089581E00895F9
:100B000082E00895089508950895E091FF0180918D
:100B1000FE01E81730F4F0E0EC5FFD4F808190E0DB
:100B200008958FEF9FEF08959091FF018091FE014E
:100B3000981750F4E92FF0E0EC5FFD4F208130E092
:100B40009F5F9093FF0102C02FEF3FEFC90108950F
:100B50008091FE0190E02091FF01821B9109089590
:100B6000CF92DF92EF92FF920F931F93CF93DF9379
:100B70007C01CB018A0120910302222389F0EB0141
:100B80006B01C40ED51ECC15DD0569F06991D70146
:100B9000ED91FC910190F081E02DC7010995F3CF13
:100BA000642F0E945A05C801DF91CF911F910F91C8
:100BB000FF90EF90DF90CF900895CF93DF931F9237
:100BC000CDB7DEB76983209103022223D1F02091B3
:100BD0000002203240F021E030E0FC013383228328
:100BE00080E090E015C080910102E82FF0E0E85726
:100BF000FD4F998190838F5F809301028093000263
:100C000005C061E0CE0101960E945A0581E090E0A6
:100C10000F90DF91CF91089590E0FC013197EF3074
:100C2000F105B0F5EA5AFF4F0C94921380918000C1
:100C30008F7703C0809180008F7D8093800008951E
:100C400080918000877FF9CF84B58F7702C084B50B
:100C50008F7D84BD0895809190008F7707C080912B
:100C600090008F7D03C080919000877F80939000DB
:100C700008958091C0008F7703C08091C0008F7D60
:100C80008093C00008958091C200877F8093C20046
:100C90000895CF93DF93282F30E0F901E25CFE4FF7
:100CA0008491F901E15EFE4FD491F901E050FF4FCC
:100CB000C491CC2389F081110E940C06EC2FF0E046
:100CC000EE0FFF1FEE50FF4FA591B4918FB7F89430
:100CD000EC91ED2BEC938FBFDF91CF9108950E94A3
:100CE000C613DC01ED91FC910190F081E02D099497
:100CF000009769F0FC0101900020E9F73197AF01FE
:100D0000481B590BBC0184E292E00C942B0280E05A
:100D100090E008958F929F92AF92BF920F931F938E
:100D2000CF93DF93CDB7DEB7A1970FB6F894DEBFB0
:100D30000FBECDBF19A2423008F44AE08E010F5D0C
:100D40001F4F842E912CA12CB12CA50194010E943F
:100D50007013E62FB901CA0101501109EA3014F4E9
:100D6000E05D01C0E95CD801EC93232B242B252BFB
:100D700061F7C8010E947806A1960FB6F894DEBF0D
:100D80000FBECDBFDF91CF911F910F91BF90AF905C
:100D90009F908F900895682F70E080E090E04AE087
:100DA0000C948A06682F84E292E00C941201CF938F
:100DB000DF93EC018C8190E02B8130E06AE070E001
:100DC0000E945C13FC0170932703609326038091BB
:100DD000800290918102892B59F02D3031051CF051
:100DE0002C50310905C02115310511F42CE030E0FB
:100DF000C9016AE070E00E945C1390932503809320
:100E000024037093230360932203AF0168E070E032
:100E100081E090E00E941205409126035091270343
:100E200060E070E081E090E00E94120540912403B0
:100E30005091250368E070E080E090E00E94120588
:100E4000409122035091230360E070E080E090E045
:100E50000E941205688170E06053784F072E000CE5
:100E6000880B990B4AE00E948A068FE20E94D20604
:100E700089810E94CB068FE20E94D2068A810E945D
:100E8000CB0682EF91E00E9478068B810E94CB0610
:100E90008AE30E94D2068C810E94CB068AE30E94DC
:100EA000D2068D810E94CB0684EF91E0DF91CF9135
:100EB0000C947806909121039111FCCF91E09093CE
:100EC0002103909320032FEF20931F0310921E0302
:100ED000260F20931D0390931C0390911C03880FF1
:100EE000892B80931C0380911B03813061F4109245
:100EF0001B0380911C038093BB008091BC0083FD89
:100F0000F8CF85EC01C085EE8093BC008091210371
:100F10008130E1F380911E03861710F460911E0367
:100F2000ABEFB2E0E4E0F2E080E0861721F09D91C3
:100F300091938F5FFACF0895CF93DF9390E0FC01F8
:100F4000E15EFE4F2491FC01E050FF4F8491882325
:100F5000C1F090E0880F991FFC01EC51FF4FC59143
:100F6000D491FC01EE50FF4FA591B4919FB7F89436
:100F70008881322F309583238883EC91E22BEC9388
:100F80009FBFDF91CF910895CF93DF930E947806A2
:100F9000EC0184EF91E00E9478068C0F9D1FDF9199
:100FA000CF9108952091FD01211103C08FEF9FEF94
:100FB00008955FB7F89422E02093E9002091F200B1
:100FC00030E01216130614F421E030E0422FFC0149
:100FD00084E6415038F028988093FC019091F1000C
:100FE0009193F7CF2115310521F08091F2008823EC
:100FF00019F05FBFC90108958BE68093E800F9CF2F
:101000002FB7F89483E08093E9009091E800892F4E
:10101000807295FF04C09091F20080E4891B2FBF7D
:1010200008958091F30281110DC082E08093EF0258
:1010300084E08093F0021092F2021092F10281E0BB
:101040008093F3028FEE92E008951F920F920FB6F5
:101050000F9211242F933F934F935F936F937F933E
:101060008F939F93AF93BF93EF93FF938091B900BA
:10107000887F803609F49CC068F5883209F45BC02B
:1010800090F4803109F454C038F4882309F4F6C090
:10109000883009F44DC0F6C0883109F44CC0803264
:1010A00009F45DC0EFC0803409F468C048F48033AF
:1010B00009F455C0883309F0E5C080931F03D8C0F8
:1010C000803509F44FC0883509F45DC0883409F0D3
:1010D000D9C0D6C0883909F4C7C0A8F4883709F444
:1010E00067C038F4883609F463C0803709F460C0FB
:1010F000C9C0883809F4B8C0803909F45FC08038A5
:1011000009F0C0C05BC0803B09F486C038F4803A67
:1011100009F466C0883A09F47FC0B4C0803C09F481
:10112000A7C0883C09F4A4C0883B09F48AC0AAC0BF
:1011300080911C0310C090911E0380911D0398178D
:1011400070F5E0911E0381E08E0F80931E03F0E0A6
:10115000E550FD4F80818093BB0085EC86C0809375
:101160001F038EC0E0911E0381E08E0F80931E034B
:101170008091BB00F0E0E550FD4F808390911E030D
:1011800080911D036EC0E0911E0381E08E0F80935D
:101190001E038091BB00F0E0E550FD4F80838091FD
:1011A000200381116DC081E080931B0384EA61C03C
:1011B00083E0809321031092EE02CFCF8091EE0264
:1011C000803208F051C0E091EE0281E08E0F8093F2
:1011D000EE028091BB00F0E0E253FD4F8083BDCF73
:1011E00085EC8093BC00109221038091EE02803246
:1011F00030F4E091EE02F0E0E253FD4F1082609196
:10120000EE0270E0E091CC02F091CD028EEC92E023
:1012100009951092EE0236C084E08093210310926B
:10122000CB021092CA02E091C802F091C90209955E
:101230008091CA02811105C081E08093CA02109298
:10124000A802E091CB0281E08E0F8093CB02F0E008
:10125000E855FD4F80818093BB009091CB02809137
:10126000CA02981708F479CF85E88093BC000AC0B9
:1012700085EC8093BC001092210304C010921F03E0
:101280000E945005FF91EF91BF91AF919F918F9177
:101290007F916F915F914F913F912F910F900FBE72
:1012A0000F901F90189530910002313208F04BC01A
:1012B000809121038111FCCF9091020222E02093C2
:1012C000210321E0209320032FEF20931F0310928E
:1012D0001E0330931D03E8E8F2E0ABEFB2E020E03C
:1012E000321721F041914D932F5FFACF10921C03DA
:1012F00020911C03990F922B90931C0390911B0338
:10130000913061F410921B0390911C039093BB00E9
:101310009091BC0093FDF8CF95EC01C095EE9093B1
:10132000BC00909121039230E1F390911F039F3F05
:1013300079F080911F03803241F080911F03803348
:1013400031F084E005C081E003C082E001C083E0A9
:101350001092010210920002109203020895CF939E
:10136000C62F91E09093030298E6909302021092A8
:10137000010210920002682F84E792E00E94DD05CE
:101380006C2F84E792E00E94DD0584E792E0CF9124
:101390000C94530991E09093030298E69093020213
:1013A0001092010210920002682F84E792E00E94DE
:1013B000DD0584E792E00E94530961E088E60E941F
:1013C0005A071092FF018093FE0184E792E00E9489
:1013D000940508951092FF011092FE0110920102EF
:1013E000109200021092210381E08093200310925A
:1013F0001B0382E00E94490683E00E944906E9EB54
:10140000F0E080818E7F808380818D7F808388E47F
:101410008093B80085E48093BC0082E895E09093C7
:10142000C9028093C80283E895E09093CD0280932F
:10143000CC020895CF93DF93282F30E0F901E25CCE
:10144000FE4F8491F901E15EFE4FD491F901E05025
:10145000FF4FC491CC2391F081110E940C06EC2F18
:10146000F0E0EE0FFF1FEA52FF4FA591B491EC910F
:10147000ED2381E090E021F480E002C080E090E084
:10148000DF91CF9108958F929F92AF92BF92CF92AA
:10149000DF92EF92FF926B017C010E94700B4B0177
:1014A0005C01C114D104E104F104F1F00E94700B5D
:1014B000DC01CB0188199909AA09BB09883E934030
:1014C000A105B10570F321E0C21AD108E108F108C5
:1014D00088EE880E83E0981EA11CB11CC114D104B3
:1014E000E104F10419F7DDCFFF90EF90DF90CF908A
:1014F000BF90AF909F908F90089540912D03509191
:101500002E0320912B0330912C0342175307B4F480
:101510009091E8009570E1F39091E80092FD19C078
:101520008093F10080912D0390912E0301968F738B
:101530009927892B19F48EEF8093E80080912D0371
:1015400090912E03019690932E0380932D0381E0BA
:10155000089580E00895DF92EF92FF920F931F931A
:10156000CF93DF93D82EF92EE42E062F10E0C8017A
:101570000196880F0E947D0A83E00E947D0ACD2D8E
:10158000DF2D0C0F1D1FC017D10789F0E7FE03C028
:10159000FE01849101C088810E947D0AF82E80E0BE
:1015A0000E947D0A8F2121968111EDCF01C081E03B
:1015B000DF91CF911F910F91FF90EF90DF900895F1
:1015C000DF92EF92FF920F931F93CF93DF93D82E6A
:1015D0008A017B01E40EF51EEB01CE15DF0571F0EB
:1015E000D7FE03C0FE01849101C088810E947D0A5C
:1015F00021968111F2CF8FEF9FEF01C0C801DF91DB
:10160000CF911F910F91FF90EF90DF90089561505F
:1016100030F02091F100FC0120830196F8CF28984A
:1016200084E68093FC010895CF92DF92EF92FF92BF
:101630000F931F93CF93DF936C017A018B01C0E06E
:10164000D0E0CE15DF0581F0D8016D918D01D60176
:10165000ED91FC910190F081E02DC6010995892B57
:1016600011F02196EECF7E01C701DF91CF911F913E
:101670000F91FF90EF90DF90CF9008950F931F93FD
:10168000CF93DF931F92CDB7DEB782E0898342E428
:1016900050E06DE571E080E80E94E00A0E941108C8
:1016A000DC0112960D911C9113970115110589F01B
:1016B000D801ED91FC910280F381E02DBE016F5FB6
:1016C0007F4FC801099597FD04C0F8010085118579
:1016D000ECCF89810F90DF91CF911F910F910895E9
:1016E0003FB7F8948091350390913603A09137036A
:1016F000B091380326B5A89B05C02F3F19F001967D
:10170000A11DB11D3FBFBA2FA92F982F8827820F87
:10171000911DA11DB11DBC01CD0142E0660F771FD7
:10172000881F991F4A95D1F708951F920F920FB6FF
:101730000F9211242F933F938F939F93AF93BF9357
:101740008091310390913203A0913303B09134031F
:101750003091300323E0230F2D3720F40196A11D93
:10176000B11D05C026E8230F0296A11DB11D2093CF
:1017700030038093310390933203A0933303B093EB
:1017800034038091350390913603A0913703B091D3
:1017900038030196A11DB11D809335039093360344
:1017A000A0933703B0933803BF91AF919F918F916E
:1017B0003F912F910F900FBE0F901F9018951F9281
:1017C0000F920FB60F9211248F939F938091E10097
:1017D0009091E100937F9093E10083FF0FC01092FE
:1017E000E90091E09093EB001092EC0092E390936B
:1017F000ED001092FD0198E09093F00082FF20C070
:1018000093E09093E9009091F200992319F09AE304
:101810009093E80090912A03992339F090912A033C
:10182000915090932A03992389F19091FC01992377
:1018300039F09091FC0191509093FC01992341F172
:1018400084FF10C08091E2008E7E81608093E20070
:101850008091E1008F7E8093E100809129038E7E4C
:10186000806111C080FF16C08091E2008E7E806191
:101870008093E2008091E1008E7E8093E100809170
:1018800029038E7E81608093290304C05D9ACDCFA9
:10189000289AD6CF9F918F910F900FBE0F901F90D7
:1018A00018951F920F920FB60F921124CF92DF92CC
:1018B000EF92FF920F931F932F933F934F935F935A
:1018C0006F937F938F939F93AF93BF93EF93FF9308
:1018D000CF93DF93CDB7DEB76C97DEBFCDBF10924D
:1018E000E9008091E80083FFFBC168E0CE014596E6
:1018F0000E94070B82EF8093E8008D8987FF05C067
:101900009091E80090FFFCCF03C09EEF9093E80019
:10191000982F907609F0C6C09E894F89588D2F89DF
:10192000F88C91110CC0803829F4809128038093A1
:10193000F10002C01092F1001092F10045C1913007
:1019400051F4811141C14130510509F03DC18091EF
:1019500028038D7F0BC0933061F4811135C1413074
:10196000510509F031C180912803826080932803DA
:101970002BC1953049F48091E80080FFFCCF822F85
:1019800080688093E30020C1963009F05EC00B8D23
:101990001C8D22E01092E90010922E0310922D036C
:1019A000F21232C010922C0310922B030E943E0BB5
:1019B00099E0BE016F5F7F4FDB01E92F1D92EA9531
:1019C000E9F79983FA8291E09E8390EA98879AEFEB
:1019D000998720912D0330912E03275F3F4F3C8341
:1019E0002B838D831092E90010922E0310922D0309
:1019F00010932C0300932B0349E050E080E00E94F9
:101A0000E00A0E943E0BE0C010932C0300932B03CE
:101A10000E941108DC0112960D911C91139701157B
:101A2000110509F4BBC0D801ED91FC910480F5814A
:101A3000E02DBE016B5E7F4FC8010995009709F04C
:101A4000C7C0F80100851185EACF973009F445C178
:101A5000983021F481E08093F100B6C0993009F00C
:101A6000B3C0837009F039C1EFEBF1E081E031E000
:101A700096E32081211109C08EE78093EA0010923D
:101A8000EA008F898093FD019FC08093E900309325
:101A9000EB0021912093EC009093ED008F5F873055
:101AA00041F7EACF8B8D9C8D1092E90010922E03A6
:101AB00010922D0390932C0380932B03898D811119
:101AC00053C08E899D89913A49F4813209F005C14C
:101AD00047E050E064E071E080E0BBC0913209F083
:101AE000FCC0833269F48F89988DA0E0B0E08093C8
:101AF000000190930101A0930201B093030164C01F
:101B0000803269F48091E80082FFFCCF67E084E0D6
:101B100091E00E94070B8BEF8093E80055C0823262
:101B200009F052C08F8980930B01EEEFFFE785919A
:101B300094918B3F9C4D19F0E0E0F8E002C0EEEF8D
:101B4000FAE08091040190910501A0910601B09105
:101B50000701803B9440A105B10509F09EC080912A
:101B60000B0180FF79C099C00E941108FC0102811D
:101B700013810115110509F4B0C0D801ED91FC9154
:101B80000190F081E02DBE016B5E7F4FC801099589
:101B900081111AC0F80100851185EBCFF1E0FF1625
:101BA00009F44EC0F3E0FF1298C08F89882309F42E
:101BB0004AC0823089F440E86BE081EC91E00E94F9
:101BC000AB0A882309F489C08EEF8093E80088C0AF
:101BD00018161906CCF381C0813029F440E86BE077
:101BE00085EB91E0ECCF833009F077C00E941108BB
:101BF000DC011296ED90FC9013978E010F5F1F4F42
:101C00006801E114F10479F0D701ED91FC910680AF
:101C1000F781E02DB801C7010995080F111DF701E3
:101C2000E084F184EECFD8011C92F60101900020EF
:101C3000E9F73197BF016C197D0940E0C601BFCFBC
:101C400063EA71E002C06FE971E0FB01449150E08A
:101C500080E80E94E00AB8CFEE3F2AE0F20751F098
:101C6000808191818737A7E79A0721F09093FF0A37
:101C70008093FE0A87E797E79183808380916000D5
:101C800080932F039BE088E10FB6F894A89580938A
:101C900060000FBE9093600097CF8081918187375D
:101CA000974709F091CFA895809160008861809353
:101CB000600080912F0380936000EE3FBAE0FB0745
:101CC00039F08091FE0A9091FF0A918380837CCF46
:101CD0001092FF0A1092FE0A77CF81E28093EB0008
:101CE0006C960FB6F894DEBF0FBECDBFDF91CF91DB
:101CF000FF91EF91BF91AF919F918F917F916F91E4
:101D00005F914F913F912F911F910F91FF90EF9015
:101D1000DF90CF900F900FBE0F901F901895CF932C
:101D2000DF93CDB7DEB72C970FB6F894DEBF0FBEAA
:101D3000CDBF789484B5826084BD84B5816084BD54
:101D400085B5826085BD85B5816085BD80916E0059
:101D5000816080936E00109281008091810082608A
:101D600080938100809181008160809381008091C7
:101D700080008160809380008091910082608093D8
:101D800091008091910081608093910080919000FA
:101D90008160809390008091C10084608093C10035
:101DA0008091C10082608093C1008091C1008160F8
:101DB0008093C1008091C30081608093C3008091B3
:101DC000C00082608093C0008091C20081608093D7
:101DD000C20080917A00846080937A0080917A00BA
:101DE000826080937A0080917A00816080937A008B
:101DF00080917A00806880937A001092FD011092A1
:101E00002803109229038091D70081608093D70026
:101E100080EA8093D80089B5806189BD89B58260E8
:101E200089BD09B400FEFDCF61E070E080E090E084
:101E30000E94430A8091D8008F7C80618093D800F3
:101E40008091E000807F8093E0008091E1008E7EB1
:101E50008093E1008DE08093E200559A209A8AE019
:101E60000E949C0789E00E949C0788E00E949C07D2
:101E70008BE00E949C078FEF9FEF9093310280933D
:101E8000300282E892E00E94E00340E050E068EC1B
:101E900074E482E892E00E94660385E892E00E9482
:101EA000E00340E050E068EC74E485E892E00E94D2
:101EB000660384E792E00E94EA098EE00E94CA0964
:101EC000682F637E8EE00E94AF098FE00E94CA09EE
:101ED00090E0880F892F881F990B892B59F0198260
:101EE00081E08A838B831C821D821E82CE01019633
:101EF0000E948A04CE0107960E94FB038F8189838A
:101F000088858A8389858B838A858C838B858D835D
:101F10008C858E83CE0101960E94D70600E010E0EA
:101F2000AA24A394B12C20E030E140E050E067E027
:101F300085E892E00E94200320E030E140E050E09C
:101F40006FE085E892E00E94200320E030E140E06D
:101F500050E067E082E892E00E94200320E030E158
:101F600040E050E06FE082E892E00E942003CE0162
:101F700007960E94FB038091FA019091FB01009764
:101F8000E9F485EC91E00E94C4078BE00E941A0AF4
:101F9000892B09F0A7C061E08091800290918102B5
:101FA000892B09F060E0862F90E090938102809366
:101FB000800280E091E00E941E1194C08130910562
:101FC00009F03FC020E030E040E050E167E082E807
:101FD00092E00E94200320E030E040E050E16FE01A
:101FE00082E892E00E9420038BEC91E00E94C407FB
:101FF00089E00E941A0A892B79F486ED91E00E940B
:10200000C407CE0107960E945101AB01BC01405F9D
:10201000514F6F4F7F4F55C08AE00E941A0A892B9B
:1020200009F060C086ED91E00E94C407CE010796DA
:102030000E945101AB01BC0140515E406109710930
:1020400040C0029709F04EC020E030E040E050E18F
:1020500067E085E892E00E94200320E030E040E065
:1020600050E16FE085E892E00E94200380EE91E06D
:102070000E94C40789E00E941A0A892B79F486ED30
:1020800091E00E94C407CE0107960E945101AB0166
:10209000BC01445C5F4F6F4F7F4F13C08AE00E94CA
:1020A0001A0A892BF9F486ED91E00E94C407CE014B
:1020B00007960E945101AB01BC014C5351096109C3
:1020C0007109CE0101960E94B301CE0101960E94D2
:1020D0008A0486E0FE013196DE01179601900D928A
:1020E0008A95E1F788E00E941A0A892BE9F5809128
:1020F000F8019091F901892BD9F58091FA0190911D
:10210000FB0101969093FB018093FA01B092F901D3
:10211000A092F801039724F01092FB011092FA01AB
:102120008DEE91E00E947806C090FA01D090FB01FC
:102130000D2C000CEE08FF08F7FE0CC08DE20E948B
:10214000D20666277727CB016C197D098E099F0976
:102150004AE003C04AE0C701B6010E948A0684EF44
:1021600091E00E94780604C01092F9011092F801E3
:102170008F81898388858A8389858B838A858C83EF
:102180008B858D838C858E83CE0101960E94D70628
:1021900064EF71E080E090E00E94430A01151105B0
:1021A00009F4C1CE0E940000BECEE4E7F2E0138243
:1021B000128248EE53E060E070E04483558366830A
:1021C00077838CE991E091838083A4E2B2E0139657
:1021D0001C921E92129714964D935D936D937C936F
:1021E00017978EEA91E011969C938E938FEF9FEF55
:1021F0001D969C938E931C97A2E8B2E080E48C938A
:102200001296FC93EE93119781E413968C93139797
:102210001596FC93EE93149780E091E00E941611BE
:1022200090E090938102809380020895F999FECF07
:1022300092BD81BDF89A992780B50895262FF99906
:10224000FECF1FBA92BD81BD20BD0FB6F894FA9A99
:10225000F99A0FBE019608955058BB27AA270E94ED
:1022600044110C9491120E94831238F00E948A1239
:1022700020F039F49F3F19F426F40C9480120EF4E8
:10228000E095E7FB0C945112E92F0E94A21258F33B
:10229000BA17620773078407950720F079F4A6F54B
:1022A0000C94DC120EF4E0950B2EBA2FA02D0B012E
:1022B000B90190010C01CA01A0011124FF27591B8B
:1022C00099F0593F50F4503E68F11A16F040A22F91
:1022D000232F342F4427585FF3CF46953795279502
:1022E000A795F0405395C9F77EF41F16BA0B620B01
:1022F000730B840BBAF09150A1F0FF0FBB1F661F48
:10230000771F881FC2F70EC0BA0F621F731F841F8A
:1023100048F4879577956795B795F7959E3F08F0B0
:10232000B0CF9395880F08F09927EE0F9795879572
:1023300008950E94AD110C9491120E948A1258F0D7
:102340000E94831240F029F45F3F29F00C9451124F
:1023500051110C94DD120C9480120E94A21268F3A9
:102360009923B1F3552391F3951B550BBB27AA274E
:1023700062177307840738F09F5F5F4F220F331F88
:10238000441FAA1FA9F335D00E2E3AF0E0E832D050
:1023900091505040E695001CCAF72BD0FE2F29D053
:1023A000660F771F881FBB1F261737074807AB0725
:1023B000B0E809F0BB0B802DBF01FF2793585F4F9A
:1023C0003AF09E3F510578F00C9451120C94DD12B6
:1023D0005F3FE4F3983ED4F3869577956795B7957C
:1023E000F7959F5FC9F7880F911D9695879597F987
:1023F0000895E1E0660F771F881FBB1F6217730700
:102400008407BA0720F0621B730B840BBA0BEE1F14
:1024100088F7E09508950E94AA1288F09F5798F0D7
:10242000B92F9927B751B0F0E1F0660F771F881FD9
:10243000991F1AF0BA95C9F714C0B13091F00E94F3
:10244000DC12B1E008950C94DC12672F782F8827F6
:10245000B85F39F0B93FCCF3869577956795B3951A
:10246000D9F73EF490958095709561957F4F8F4F89
:102470009F4F08950E94C41290F09F3748F4911125
:1024800016F00C94DD1260E070E080E89FEB089598
:1024900026F41B16611D711D811D0C9457120C949E
:1024A000721297F99F6780E870E060E008958823D2
:1024B00071F4772321F09850872B762F07C066237D
:1024C00011F499270DC09051862B70E060E02AF03E
:1024D0009A95660F771F881FDAF7880F969587956C
:1024E00097F908959F3F31F0915020F487957795A3
:1024F0006795B795880F911D9695879597F90895DB
:102500009FEF80EC089500240A941616170618060B
:102510000906089500240A941216130614060506E7
:102520000895092E0394000C11F4882352F0BB0F78
:1025300040F4BF2B11F460FF04C06F5F7F4F8F4FDB
:102540009F4F089557FD9058440F551F59F05F3F16
:1025500071F04795880F97FB991F61F09F3F79F0C5
:1025600087950895121613061406551FF2CF469547
:10257000F1DF08C0161617061806991FF1CF8695C9
:1025800071056105089408950E94AA12A0F0BEE7A3
:10259000B91788F4BB279F3860F41616B11D672F52
:1025A000782F8827985FF7CF869577956795B11D27
:1025B00093959639C8F30895E894BB276627772743
:1025C000CB0197F908950E94F6120C9491120E9483
:1025D000831238F00E948A1220F0952311F00C9497
:1025E00051120C94801211240C94DD120E94A2123C
:1025F00070F3959FC1F3950F50E0551F629FF00156
:10260000729FBB27F00DB11D639FAA27F00DB11D6E
:10261000AA1F649F6627B00DA11D661F829F2227F7
:10262000B00DA11D621F739FB00DA11D621F839F7E
:10263000A00D611D221F749F3327A00D611D231F54
:10264000849F600D211D822F762F6A2F11249F57A2
:1026500050409AF0F1F088234AF0EE0FFF1FBB1FA5
:10266000661F771F881F91505040A9F79E3F510564
:1026700080F00C9451120C94DD125F3FE4F3983E0D
:10268000D4F3869577956795B795F795E7959F5F0E
:10269000C1F7FE2B880F911D9695879597F90895A0
:1026A000991B79E004C0991F961708F0961B881FA4
:1026B0007A95C9F78095089597FB072E16F4009434
:1026C00007D077FD09D00E94B21307FC05D03EF475
:1026D000909581959F4F0895709561957F4F0895CE
:1026E000A1E21A2EAA1BBB1BFD010DC0AA1FBB1F16
:1026F000EE1FFF1FA217B307E407F50720F0A21B88
:10270000B30BE40BF50B661F771F881F991F1A94F4
:1027100069F760957095809590959B01AC01BD011E
:10272000CF010895EE0FFF1F0590F491E02D09945D
:10273000A29FB001B39FC001A39F700D811D112402
:10274000911DB29F700D811D1124911D08950E944D
:102750009813A59F900DB49F900DA49F800D911D7F
:1027600011240895AA1BBB1B51E107C0AA1FBB1F60
:10277000A617B70710F0A61BB70B881F991F5A950D
:10278000A9F780959095BC01CD01089581E090E076
:0A279000F8940C94CB13F894FFCFDB
:10279A00FFFFFFFF00E10000000000000010001032
:1027AA0000100010001000100000000000100010BF
:1027BA0000000000000000000010001000000010DF
:1027CA00001000000010001000100010001000009F
:1027DA0000000010000000100010000000000010AF
:1027EA00001000100000001000100000001000107F
:1027FA00001000000010001000100010001000105F
:10280A00001000100000000000000000001000107E
:10281A00001000100010001000100010001000102E
:10282A00001000000010001000000000DD05B005D7
:10283A004E018405A80594058505000000001201D3
:10284A002B02B10228013301D902B502000100C1ED
:10285A008081000000436C6F636B00486F757220C3
:10286A00636865636B00486F757220706C757300DE
:10287A004D696E75746520636865636B004D6F649E
:08288A00653A20000D0A000070
:00000001FF
